:040000000AEF00F013
:10000800FACF3FF0FBCF40F033ED03F07FEF03F082
:10001800000E00010001956F000E0001946F0001B1
:1000280000019551800A800F040ED8B4945DD8B0B1
:1000380012D0380E000100019425D96E000E00017F
:1000480000019521DA6EDF50E6EC04F000010001B2
:10005800944B952BE4D7F4EC04F0016EF4EC04F027
:10006800026E01C025F002C022F02550800AD8A4F3
:10007800A0D02250D8B49AD0000E00010001956F8C
:10008800000E0001946F1BD0020E000100019425A0
:100098000001916F000E0001000195210001926F8F
:1000A800010E00019125D96E000E00019221DA6E31
:1000B800F4EC04F0DF6E00010001944B952B225004
:1000C8000001916F926B000100019551800A0001B7
:1000D800936F915100010001945D00019251800AD3
:1000E80000019359D8A0D0D7000E00010001956FE8
:1000F800000E0001946F000100019551800A800FE5
:10010800050ED8B4945DD8B012D02F0E00010001AE
:100118009425D96E000E000100019521DA6EDF509A
:10012800E6EC04F000010001944B952BE4D7F4ECC5
:1001380004F01A6EF4EC04F01B6E1AC026F01BC013
:1001480023F02350D8B430D08368000E000100019A
:10015800956F000E0001946F11D00B0E0001000185
:100168009425D96E000E000100019521DA6EF4EC99
:1001780004F0DF6E00010001944B952B2350000121
:10018800916F926B000100019551800A0001936FF5
:10019800915100010001945D00019251800A000113
:1001A8009359D8B026D0D9D7836823D0050E886E46
:1001B80020D02550860AD8A402D0FE0E19D025508A
:1001C800870AD8A402D0FD0E13D02550880AD8A4D7
:1001D80002D0FB0E0DD02550890AD8A402D0F70E04
:1001E80007D025508A0AD8A402D0EF0E01D0DF0E1E
:1001F800836E1200000E00010001966F000E0001D0
:10020800956F000100019651800A800F080ED8B43E
:10021800955DD8B0BCD0000E00010001986F000EAB
:100228000001976F000100019851800A800F0D0EA0
:10023800D8B4975DD8B014D00001840E0001000135
:100248009725D96E0001000E000100019821DA6E91
:10025800DF50E6EC04F000010001974B982BE2D741
:10026800270E000100019525D96E000E000100013E
:100278009621DA6EDF50E6EC04F0000E0001000172
:10028800986F000E0001976F000100019851800AD5
:10029800800F020ED8B4975DD8B012D03C0E000182
:1002A80000019725D96E000E000100019821DA6E31
:1002B800DF50E6EC04F000010001974B982BE4D7DF
:1002C80095C091F096C092F0000E00010001946F65
:1002D800030E0001936FD8EC03F00001600E0001DB
:1002E80000019125D96E0001000E00010001922144
:1002F800DA6EF4EC04F0DF6E95C091F096C092F0DF
:10030800000E00010001946F030E0001936FD8ECFA
:1003180003F0010E000100019127000E0001922355
:100328000001600E000100019125D96E0001000E48
:10033800000100019221DA6EF4EC04F0DF6E95C042
:1003480091F096C092F0000E00010001946F030E28
:100358000001936FD8EC03F0020E00010001912711
:10036800000E000192230001600E0001000191259A
:10037800D96E0001000E000100019221DA6EF4EC42
:1003880004F0DF6E00010001954B962B3AD712005E
:10039800000E000100019B6F000E00019A6F000E15
:1003A800956E969251EC04F0010E836E9FEC04F06A
:1003B800030E836E88EC04F0070E836E93EC02F054
:1003C8000F0E836EFEEC00F01F0E836EAEEC03F092
:1003D8003F0E836E0CEC00F07F0E836E2650800A71
:1003E800D8A44AD02350D8B444D001EC04F0836890
:1003F8000001996F000E1F6E000199510AD0210E5D
:100408000001996F760EE82EFED7992FFCD700D001
:100418001F2A640E1F64F3D70001996F000E1F6E28
:10042800000199510AD0210E0001996F760EE82E2D
:10043800FED7992FFCD700D01F2A640E1F64F3D76C
:100448000001996F000E1F6E000199510AD0210E0C
:100458000001996F760EE82EFED7992FFCD700D0B1
:100468001F2A640E1F64F3D729EC04F07F0E836EF5
:1004780005D029EC04F002D029EC04F00001996FB2
:10048800000E266E00019951BDEC04F01E04D8A49C
:1004980041D001EC04F00001996F000E1F6E0001BD
:1004A80099510AD0210E0001996F760EE82EFED7D9
:1004B800992FFCD700D01F2A640E1F64F3D70001C0
:1004C800996F000E1F6E000199510AD0210E00018C
:1004D800996F760EE82EFED7992FFCD700D01F2AE9
:1004E800640E1F64F3D70001996F000E1F6E0001A0
:1004F80099510AD0210E0001996F760EE82EFED789
:10050800992FFCD700D01F2A640E1F64F3D729EC5B
:1005180004F002D029EC04F09AC083FF5BD7010EE7
:10052800E6EC04F0000EE6EC04F0F4EC04F01C6ECB
:10053800F4EC04F01D6E1D50D8B48CD0000E0001F0
:100548000001976F000E0001966F13D00001780E1E
:10055800000100019625D96E0001000E000100017E
:100568009721DA6EF4EC04F0DF6E00010001964B7F
:10057800972BFD0E0001916FFF0E926F1D50000129
:10058800936F946B000191510001932700019251E0
:1005980000019423000100019751800A0001956F22
:1005A800935100010001965D00019451800A0001F9
:1005B8009559D8A0CBD7FD0E1D2400010001966FD8
:1005C80000010001976BFF0E97232FD0FD0E00014D
:1005D800916FFF0E926F1D500001936F946B000195
:1005E80091510001932700019251000194230001C9
:1005F800931F941F934B942B000100019651000107
:10060800932700010001975100019423130E000164
:100618009325D96E000E00019421DA6EF4EC04F0F3
:10062800DF6E00010001964B972B1D500001916F62
:10063800926B000100019751800A0001936F91515C
:1006480000010001965D00019251800A0001935952
:10065800D8A0BCD714C018F015C019F012000600B5
:10066800E9CF41F0EACF42F0E1CF43F0E2CF44F0E6
:10067800D9CF45F0DACF46F0F3CF47F0F4CF48F0C2
:10068800F6CF49F0F7CF4AF0F8CF4BF0F5CF4CF062
:10069800010EF2AA000EF2AA000EE8A00AD03E6EE1
:1006A800000E4D6E3E5002D04D284D6E0F0E4D641B
:1006B800FBD73E6E010E246E3E50F2944CC0F5FFFF
:1006C8004BC0F8FF4AC0F7FF49C0F6FF48C0F4FF27
:1006D80047C0F3FF46C0DAFF45C0D9FF44C0E2FF78
:1006E80043C0E1FF42C0EAFF41C0E9FF40C0FBFF51
:1006F8003FC0FAFF110000EE60F0240EEE6AE80633
:10070800FDE100EE01F0260EEE6AE806FDE1DA0EE4
:10071800F66E090EF76E000EF86E00EE84F010EE1D
:100728000DF00900F5CFEEFFE550E150FAE1920E29
:10073800F66E090EF76E000EF86E00EE27F010EE5A
:1007480017F00900F5CFEEFFE550E150FAE100019E
:10075800CCEF01F0000E00010001926F000E0001C5
:10076800916F000100019251800A800F040ED8B4E5
:10077800915DD8B012D0340E000100019125D96ED8
:10078800000E000100019221DA6EDF50E6EC04F061
:1007980000010001914B922BE4D7F4EC04F0166EA3
:1007A800F4EC04F0176E12000001000191510001F1
:1007B80000019303F3CF4EF0F4CF4FF00001000196
:1007C8009151000100019403F3CFF4FFF36AF35051
:1007D8004E26F4504F220001000192510001000101
:1007E8009303F3CFF4FFF36AF3504E26F4504F22ED
:1007F8004EC091F04FC092F01200000E00010001AF
:10080800926F000E0001916F000100019251800A61
:10081800800F320ED8B4915DD8B016D08482070EFE
:100828004E6E7D0EE82EFED74E2EFCD700F0849239
:100838003B0E4E6E700EE82EFED74E2EFCD70001F2
:100848000001914B922BE0D71200000E000100012D
:10085800926F000E0001916F000100019251800A11
:10086800800F320ED8B4915DD8B016D08482040EB1
:100878004E6E3E0EE82EFED74E2EFCD784923E0ECC
:100888004E6EAF0EE82EFED74E2EFCD700F00001BC
:100898000001914B922BE0D71200000EC26E000EA1
:1008A800C16E000EC06EC294C296C298C29AC15060
:1008B800F00B0E09C16EC090C092C094C050C70B17
:1008C8000809C06EC280110E4E6E3A0EE82EFED791
:1008D8004E2EFCD700D01200828C210E4E6E760E62
:1008E800E82EFED74E2EFCD700D0829C080EE82EAC
:1008F800FED700F0828C210E4E6E760EE82EFED7C3
:100908004E2EFCD700D01200550EDFEC04F0D5ECCB
:1009180004F0AEEC04F007D070EC04F0550EDFECF8
:1009280004F0AEEC04F0216E2150550AD8A4F4D797
:10093800D59EF29E1200000EAC6E000EAB6EAB8818
:10094800AC84AB860A0EAF6EAC98AC8AAB8E949C26
:10095800948E12009EBA03D02450D8B4FBD72466D4
:1009680002D0AE5005D04E6E000E246E4E50000ED2
:100978001200010E926E80A403D04E6E010E02D0BA
:100988004E6E000E1E6E4E50120000FC7C3C5C6CDD
:100998007470040393200802020200040226073F31
:1009A8000100D59AD580D582D584D596F28EF28C61
:1009B800F28AD58E1200E8CF4EF09EA8FED74EC020
:1009C800ADFF1200E8CF4EF09EA8FED74EC0ADFF97
:1009D8001200070E03A100F8011800206060000053
:0809E8009EAAFED7AE501200DA
:020000040020DA
:08000000FFFFFFFFFFFFFFFF00
:020000040030CA
:0E000000FF021F1EF38381FFFFC0FFE0FF40E1
:00000001FF
